:100000000C9434000C945D000C945D000C945D0025
:100010000C945D000C945D000C9478010C945D00D0
:100020000C945D000C945D000C945D000C94B8067B
:100030000C945D000C945D000C9416050C945D000E
:100040000C945D000C945D000C945D000C945D00BC
:100050000C945D000C945D000C945D000C94D5062E
:100060000C945D000C945D0011241FBECFEFD8E00E
:10007000DEBFCDBF14BE0FB6F894A8958091600086
:10008000886180936000109260000FBE11E0A0E0D4
:10009000B1E0EEE7F9E102C005900D92AE30B10794
:1000A000D9F721E0AEE0B1E001C01D92A037B20760
:1000B000E1F70E9471090C94AB0C0C9400000895B8
:1000C00080E10E94920580910001909101010E94BF
:1000D0008F0184E10E9492058091000190910101BD
:1000E0000E948F0184E00E9492058091000190910E
:1000F00001010E948F0185E00E949205809100011C
:10010000909101010E948F0181E00E9492058091EF
:100110000001909101010E948F0181E10E949205EE
:1001200080910001909101010C948F01089590E05D
:1001300080E008950895CF92DF92EF92FF921F938F
:10014000CF93DF93F89414B817B81AB815B818B845
:100150001BB8529A5A9A14BC85E085BD8FEF87BDB3
:1001600082E080936E0010928000109281002FE850
:100170003BE0309389002093880080936F00539870
:10018000239891EA9093B0008093B1001092B4004C
:100190001092B3008BE080BF83E080937F0086E005
:1001A00080937C0083E880937A0080917A00806459
:1001B00080937A0080917A0086FDFCCF10927C00BB
:1001C00083EA80937A0081E080937B0081E090E075
:1001D0000E94410C8F3F11F080936600109239010C
:1001E000C1E0C0931201C0935601109230011092E9
:1001F0006A0180E990E00E94410C80932F01809178
:100200002F01887311F0C0932F0110925A011092A0
:1002100059018FEF90E0909358018093570110920D
:10022000350110923601109237011092380181E0A9
:100230008093110182E49FE09093690180936801AB
:1002400080EB90E00E94410CC82F81EB90E00E946F
:10025000410CD82FD0936C01C0936B0185E090E0E6
:100260000E94410C80936F0189E090E00E94410C54
:1002700080935B018CE090E00E94410C80936D01C3
:1002800084E190E00E94410C80936E018AE3E82EA5
:1002900081E0F82E93E1C92E91E0D92EC0E2D0E0A2
:1002A000CE010E94410C182FCE0101960E94410CF4
:1002B000912FF701819391937F01CE01C0960E9407
:1002C000410C182FCE01C1960E94410C912FF601CE
:1002D000819391936F012296CC33D10509F77894DD
:1002E000DF91CF911F91FF90EF90DF90CF90089515
:1002F0000F920FB60F921F9211248F930FB6F8949E
:10030000A8958091600088618093600010926000E1
:100310000FBE8F911F900F900FBE0F9018959C01EC
:100320002115310509F408958FEC97E00197F1F755
:1003300000C0000021503109F3CF8093B3006093D7
:10034000B40008958FEF8093B3008093B4008FE0E2
:1003500090E00C948F018091390181111EC0F894B6
:1003600087E080937C0083E880937A0080917A0014
:10037000806480937A0080917A0086FDFCCF809122
:1003800078009091790010927C0023EA20937A0003
:1003900021E020937B00789408958FEF9FEF0895DC
:1003A0008091390181111EC0F89488EC80937C0003
:1003B00087E880937A0080917A00806480937A0045
:1003C00080917A0086FDFCCF809178009091790031
:1003D00010927C0023EA20937A0021E020937B0096
:1003E000789408958FEF9FEF0895CF93DF9330E0D7
:1003F00020E080E0E6E0F3E8C3EAD1E0A1E0B0E08D
:1004000090E8F894E0937C00F0937A0040917A00B1
:10041000406440937A0040917A0046FDFCCF4091C1
:10042000780050917900417050917A005064509357
:100430007A0050917A0056FDFCCF6091780070915F
:10044000790010927C00C0937A00D0937B0078945E
:100450006170461302C09150A1F6442339F0AD01FA
:10046000022E01C0440F0A94EAF7842B2F5F3F4FFE
:100470002830310529F6DF91CF910895809102014E
:1004800098E0899F90011124982F922720910E01C6
:1004900081E0820F80930E01892F82958695877067
:1004A00089272695269582278093020108958093B7
:1004B0000201089580913901811116C0F89486E0F7
:1004C00080937C0083E880937A0080917A00806436
:1004D00080937A0080917A0086FDFCCF809178002D
:1004E00090917900789408958FEF9FEF08953F924F
:1004F0004F925F926F927F928F929F92AF92BF9234
:10050000CF92DF92EF92FF920F931F93CF93DF93DF
:1005100000D000D000D00F92CDB7DEB77C01DC0157
:1005200012960D911C910438B3E01B070CF0B6C174
:1005300080911301909114018017910708F4ACC1C8
:10054000E5E1F1E021E02D83819191918017910700
:1005500038F03D813F5F3D833E30B1F74DE04D8344
:100560005D81852F90E0FC01EE0FFF1FED5EFE4FD9
:10057000C080D180880F991FFC01EF5EFE4F808103
:100580009181D601A81BB90B9D0150E040E0298361
:100590003A834B835C83CA01BD010E94CE0A9B0152
:1005A000AC0169837A838B839C8369817A818B8197
:1005B0009C810E94BA094B015C01C801012E000C0C
:1005C000AA0BBB0B89839A83AB83BC83BC01CD018F
:1005D0000E94D00A562E672E782E9E83960150E0F8
:1005E00040E029833A834B835C83CA01B6010E94B1
:1005F000CE0A362E472E6C019D81892F90E0B0E007
:10060000A0E089839A83AB83BC83BC01CD010E94A7
:10061000CE0A20E030E040E05FE369837A838B8399
:100620009C8369817A818B819C810E945C0B20E094
:1006300030E0A90169837A838B839C8369817A8105
:100640008B819C810E94BA099401A50169837A83F8
:100650008B839C8369817A818B819C810E945C0B56
:100660009B01AC0139824A82CB82DC8269817A812A
:100670008B819C810E94B9099B01AC0159826A82DD
:100680007B82AE81AC8369817A818B819C810E945F
:10069000B90920E030E040E251E469837A838B833A
:1006A0009C8369817A818B819C810E945C0B698328
:1006B0007A838B839C8369817A818B819C810E9460
:1006C000980A6E837F8389829A82AB82BC82698119
:1006D0007A818B819C810E94980A69837A838B83BB
:1006E0009C838E819F8169817A810E947C096D83C0
:1006F0000D3BB2E01B070CF497C1D701CD90DC9005
:1007000080913A0190913B018C159D0508F4C9C078
:10071000ECE3F1E081E090E0882EE190F190EC14C0
:10072000FD0408F4C3C001968E309105A9F7BAE51F
:10073000BE83ED81EF3F09F4B6C09801110F440B61
:10074000550B29833A834B835C83CA01B9010E940C
:10075000D00A7B018C019D81892F90E0B0E0A0E060
:1007600089839A83AB83BC83BC01CD010E94CE0AEE
:10077000B62EC72ED82E9D839701A80160E070E0A9
:1007800081E694E40E94B9099B01AC01B982CA8256
:10079000DB82AD81AC8369817A818B819C810E94EF
:1007A0005C0BB62EC72ED82E9D833E81232F30E0C2
:1007B00050E040E029833A834B835C83CA01B9014E
:1007C0000E94CE0A4B01A82E9E8320E030E04FE22B
:1007D00054E4E982FA820B831C8369817A818B81DC
:1007E0009C810E94B9099B01AC0189829A82AB82EB
:1007F0008E818C8369817A818B819C810E945C0BC4
:100800009B01AC01B982CA82DB829D819C83698194
:100810007A818B819C810E94BA0920E030E048E413
:1008200053E469837A838B839C8369817A818B818A
:100830009C810E94260A20E030E044E052E4698373
:100840007A838B839C8369817A818B819C810E94CE
:10085000BA0969837A838B839C8369817A818B81CE
:100860009C810E949F0A862F27960FB6F894DEBFC0
:100870000FBECDBFDF91CF911F910F91FF90EF90F1
:10088000DF90CF90BF90AF909F908F907F906F90B0
:100890005F904F903F9008951D822ACFEFEFED8338
:1008A0002CCF1E8246CF8E818F5DDECF880F991FA1
:1008B000FC01E85CFE4F80819181D701A81BB90B38
:1008C0009D0150E040E029833A834B835C83CA0159
:1008D000BD010E94CE0A9B01AC0169837A838B83A0
:1008E0009C8369817A818B819C810E94BA09962EB2
:1008F000A72EB82E9E83C601DD0CAA0BBB0B8983E5
:100900009A83AB83BC83BC01CD010E94D00A3B011A
:100910006C01970150E040E029833A834B835C836C
:10092000CA01B7010E94CE0A2B017C01882D90E0FC
:10093000B0E0A0E089839A83AB83BC83BC01CD0186
:100940000E94CE0A20E030E040E05FE369837A83D2
:100950008B839C8369817A818B819C810E945C0B53
:1009600020E030E0A90169837A838B839C836981CD
:100970007A818B819C810E94BA09292D3A2D4B2DB9
:100980005E8169837A838B839C8369817A818B8181
:100990009C810E945C0B9B01AC0149825A82EB82D4
:1009A000FC8269817A818B819C810E94B9099B01BB
:1009B000AC0169827A82CB82DC8269817A818B8107
:1009C0009C810E94B90920E030E040E251E4698353
:1009D0007A838B839C8369817A818B819C810E943D
:1009E0005C0B69837A838B839C8369817A818B8199
:1009F0009C810E94980A7B019982AA82BB829E8177
:100A00009C8369817A818B819C810E94980A698389
:100A10007A838B839C83C70169817A810E947C09D8
:100A20006E836F3F09F085CE8D813ECF1F920F926E
:100A30000FB60F9211242F933F934F935F936F93B1
:100A40007F938F939F93AF93BF93EF93FF93809187
:100A5000590190915A012091570130915801820F0C
:100A6000931F90935A01809359018FEF90E09093D8
:100A70005801809357018FEF87BD80913501909188
:100A80003601A0913701B09138010196A11DB11D29
:100A90008093350190933601A0933701B0933801CC
:100AA00080913901811123C0809168019091690181
:100AB0002091590130915A0182179307C0F4809117
:100AC00011018430A1F4E0910501F091060109952E
:100AD000009769F00E94EE088823D1F0E0910301AD
:100AE000F0910401099510925A0110925901FF9159
:100AF000EF91BF91AF919F918F917F916F915F9196
:100B00004F913F912F910F900FBE0F901F9018950E
:100B10000E94310C9C0199279093580180935701B2
:100B200027BDE5CF80FF11C0559A81FF10C0549AB0
:100B300082FF0FC03B9A83FF0EC03A9A84FF0DC01C
:100B40003D9A85FF0CC03C9A08955598EECF549875
:100B5000EFCF3B98F0CF3A98F1CF3D98F2CF3C9849
:100B600008958C017B01D0E0CFEF84E0D82E98E18E
:100B7000C92E29E2B22EE0911101E730E0F7F0E052
:100B8000E355F34F0C949009F89480B7877F80BFAA
:100B900080917A008F7780937A0014B817B81AB8CA
:100BA00015B818B81BB80FB6F894A895C092600095
:100BB0000FBEB092600080916000806480936000FE
:100BC00083B7817F846083BFF89483B7816083BFDC
:100BD0007894889583B78E7F83BF7894109239017B
:100BE000529A5A9A80917A00806880937A0087E5B9
:100BF00092E00197F1F700C0000080B7886180BFE4
:100C00008FE30E949205EFE1FEE43197F1F700C017
:100C1000000080913901882361F083E00E949205F1
:100C2000FFEF20E782E0F15020408040E1F700C074
:100C3000000080E01EC08CE00E949205EFECF7E01F
:100C40003197F1F700C0000080E00E949205FFEFAD
:100C500021EE84E0F15020408040E1F700C0000028
:100C60008ACF0E945A029C012B3A92E0390724F065
:100C70008CE00E9492057FCF80E32938E2E03E07B6
:100C8000C4F78FE027363240A4F783E0F2CF4899CB
:100C9000D0CF81E00E9492058FEC97E00197F1F7A9
:100CA00000C0000080E00E9492059FEFE1EEF4E0BA
:100CB0009150E040F040E1F7D1CFD11102C0F801EE
:100CC0000995D0921101D1E0F701099554CF809197
:100CD0000F01811107C01092B3001092B40010925E
:100CE000100149CF90910F0180911001981709F4DC
:100CF00042CF80910F018093100180910F018130CC
:100D000089F4C093B3001092B4008FE295E7019785
:100D1000F1F700C0000080916F018093B300109242
:100D2000B40029CF80910F011092B300C093B4009A
:100D3000823069F4EFE2F5E73197F1F700C0000087
:100D400080915B011092B3008093B40014CFC093E4
:100D5000B300C093B4008FE295E70197F1F700C0AC
:100D6000000080916E0190916D019093B300ECCFE3
:100D70008F931F9280E0182E9F9310928100109203
:100D800085001092840081E08093120180935601C7
:100D90001092390110927C0093EA90937A0080932C
:100DA0007B009F911F908F9118951F920F920FB605
:100DB0000F9211240F931F932F933F934F935F93A1
:100DC0006F937F938F939F93AF93BF93EF93FF9313
:100DD000CF93DF9300D000D0CDB7DEB72091840051
:100DE0003091850041E040933901809112018823C0
:100DF000D9F11092850010928400409381001092E6
:100E00006A0110921201809156018823A1F080910D
:100E10007A0086FDFCCF80917800909179009093C4
:100E200034018093330181E080937C0093EA9093B6
:100E30007A0080937B000F900F900F900F90DF91BE
:100E4000CF91FF91EF91BF91AF919F918F917F9142
:100E50006F915F914F913F912F911F910F910F9043
:100E60000FBE0F901F901895C901875891098437BC
:100E70009940A0F010928100109285001092840099
:100E800040931201409356011092390110927C0058
:100E900083EA80937A0040937B00CDCF26583109B6
:100EA000A4EFB0E00E94960969837A838B839C83C8
:100EB0008C0122273327883068F481E090E09C0180
:100EC00001C0220F0A95EAF780916A01822B809374
:100ED0006A01B1CF4093120180915601882341F1FC
:100EE00080917A0086FDFCCF809178009091790006
:100EF000909332018093310110927C0083EA8093B9
:100F00007A0081E080937B0090916A01992359F0E7
:100F100010928100109285001092840080935601F7
:100F20001092390188CF109256011092300183CF70
:100F300080913001E82FF0E0E45AFE4F90916A0171
:100F400090838F5F809330018C3009F074CF1092C2
:100F500081001092850010928400409356011092F7
:100F6000390180916601909167019A8389838CE5AC
:100F700091E00E94D208A981BA81A817B90709F0A7
:100F80005ACFE0916501E7FD0AC0E0910701F091B9
:100F9000080161E371E08CE591E009954CCF88E7A9
:100FA0008E0F833030F0539823981092B400109233
:100FB000B300E058EB3008F03ECFF0E0EC54F34FD4
:100FC0000C94900980916E008D7F80936E0016BC0A
:100FD000E0E0F0E70995F0E0E0E0FCCF10921101CD
:100FE0002ACF81E08093110126CF85E0FBCF82E0FC
:100FF000F9CF80911101833009F41DCF8091110147
:10100000843009F418CF539A239A1092B4001092A6
:10101000B30083E0E7CF80915C01823009F457C0D0
:10102000A0F5811149C080911101863099F5609138
:101030006B0180EB90E00E94490C60916C0181EBA8
:1010400090E00E94490C60916F0185E090E00E9461
:10105000490C60915B0189E090E00E94490C60912D
:101060006D018CE090E00E94490C60916E0184E17A
:1010700090E00E94490C539823981092B40010926B
:10108000B30081E08093110105C0833091F1843079
:1010900009F441C080915C01882309F4CCCE809191
:1010A0001101863009F4C7CE539A239A1092B400E6
:1010B0001092B30086E096CF80915D0190915E0121
:1010C00090936C0180936B0110920F01E3CF90918C
:1010D0000F0180915F01913021F490916F01981779
:1010E000C9F21092100191E090930F0180936F016B
:1010F000D1CF90910F0180916001923021F49091B5
:101100005B01981739F21092100192E090930F0151
:1011100080935B01BFCF20910F018091620190917C
:101120006101233049F420916E01281305C02091FC
:101130006D01291709F4AECF1092100123E020931E
:101140000F0190936D0180936E01A4CF80911101E6
:10115000863081F0539A239A1092B4001092B30013
:1011600080E00E94920510920F011092100186E01B
:101170008093110120915C0181E090E002C0880F12
:10118000991F2A95E2F720916B0130916C0182231F
:101190009323892B21F081E080930F014CCE109294
:1011A0000F0149CEFC019C01265F3F4F8FEF9FEF5F
:1011B00041918427082E8295807F8025092E982FC3
:1011C00082958F700826869598278927880F880F23
:1011D000880F8025E217F30759F708950FB6F894A2
:1011E000A4B120912F012A2B24B921E030912F01A5
:1011F000203029F0000025B1232B25B904C00000C0
:101200000000000000C0000000000000309525B183
:10121000232325B92EEA2A95F1F72BEE30B735FFB7
:101220000AC0A4B930912F01309525B1232325B9E7
:101230000FBE80E0089500002A9581F721E03091EB
:101240002F01203029F0000025B1232B25B904C03F
:1012500000000000000000C0000000000000309509
:1012600025B1232325B9000024E52A95F1F7FC01D7
:101270008CE0619170E0660F771F616072609AE0A8
:1012800041E050E09A0126233723232B30912F0190
:10129000203029F0000025B1232B25B904C000001F
:1012A0000000000000C0000000000000309525B1E3
:1012B000232325B9000021E52A95F1F7440F551F96
:1012C0009A9501F78A95A9F620B7206120BFA4B9A5
:1012D00030912F01309525B1232325B90FBE81E030
:1012E00008950E949B0060E670E08FE590E00E9408
:1012F000B10590E080E0089597FB072E16F4009466
:1013000007D077FD09D00E94A50907FC05D03EF45F
:10131000909581959F4F0895709561957F4F0895A1
:10132000EE0FFF1F0590F491E02D0994A29FB001EC
:10133000B39FC001A39F700D811D1124911DB29F09
:10134000700D811D1124911D0895AA1BBB1B51E135
:1013500007C0AA1FBB1FA617B70710F0A61BB70B25
:10136000881F991F5A95A9F780959095BC01CD01CA
:1013700008955058BB27AA270E94D1090C94220B2C
:101380000E94140B38F00E941B0B20F039F49F3F91
:1013900019F426F40C94110B0EF4E095E7FB0C9471
:1013A0000B0BE92F0E94330B58F3BA176207730730
:1013B0008407950720F079F4A6F50C94550B0EF4EC
:1013C000E0950B2EBA2FA02D0B01B90190010C0155
:1013D000CA01A0011124FF27591B99F0593F50F46D
:1013E000503E68F11A16F040A22F232F342F4427C5
:1013F000585FF3CF469537952795A795F0405395BD
:10140000C9F77EF41F16BA0B620B730B840BBAF08C
:101410009150A1F0FF0FBB1F661F771F881FC2F7F7
:101420000EC0BA0F621F731F841F48F4879577950B
:101430006795B795F7959E3F08F0B0CF9395880FC5
:1014400008F09927EE0F9795879508950E943A0A1C
:101450000C94220B0E941B0B58F00E94140B40F0BE
:1014600029F45F3F29F00C940B0B51110C94560B8F
:101470000C94110B0E94330B68F39923B1F355239D
:1014800091F3951B550BBB27AA2762177307840797
:1014900038F09F5F5F4F220F331F441FAA1FA9F32D
:1014A00035D00E2E3AF0E0E832D091505040E6951B
:1014B000001CCAF72BD0FE2F29D0660F771F881F7C
:1014C000BB1F261737074807AB07B0E809F0BB0B6F
:1014D000802DBF01FF2793585F4F3AF09E3F510583
:1014E00078F00C940B0B0C94560B5F3FE4F3983E92
:1014F000D4F3869577956795B795F7959F5FC9F76C
:10150000880F911D9695879597F90895E1E0660FEC
:10151000771F881FBB1F621773078407BA0720F065
:10152000621B730B840BBA0BEE1F88F7E0950895CE
:101530000E949F0A6894B1110C94560B08950E9462
:101540003B0B88F09F5798F0B92F9927B751B0F00F
:10155000E1F0660F771F881F991F1AF0BA95C9F737
:1015600014C0B13091F00E94550BB1E008950C9475
:10157000550B672F782F8827B85F39F0B93FCCF328
:10158000869577956795B395D9F73EF490958095B4
:10159000709561957F4F8F4F9F4F0895E89409C0D4
:1015A00097FB3EF490958095709561957F4F8F4F96
:1015B0009F4F9923A9F0F92F96E9BB279395F695AC
:1015C000879577956795B795F111F8CFFAF4BB0F2A
:1015D00011F460FF1BC06F5F7F4F8F4F9F4F16C08E
:1015E000882311F096E911C0772321F09EE8872F18
:1015F000762F05C0662371F096E8862F70E060E0D4
:101600002AF09A95660F771F881FDAF7880F96954C
:10161000879597F9089597F99F6780E870E060E0F3
:1016200008959FEF80EC089500240A94161617067B
:1016300018060906089500240A94121613061406C3
:1016400005060895092E0394000C11F4882352F026
:10165000BB0F40F4BF2B11F460FF04C06F5F7F4FDE
:101660008F4F9F4F089557FD9058440F551F59F0C5
:101670005F3F71F04795880F97FB991F61F09F3F7F
:1016800079F087950895121613061406551FF2CFA8
:101690004695F1DF08C0161617061806991FF1CFF8
:1016A00086957105610508940895E894BB2766271F
:1016B0007727CB0197F908950E946F0B0C94220BAA
:1016C0000E94140B38F00E941B0B20F0952311F0A0
:1016D0000C940B0B0C94110B11240C94560B0E94C0
:1016E000330B70F3959FC1F3950F50E0551F629F28
:1016F000F001729FBB27F00DB11D639FAA27F00D6B
:10170000B11DAA1F649F6627B00DA11D661F829F91
:101710002227B00DA11D621F739FB00DA11D621F76
:10172000839FA00D611D221F749F3327A00D611D93
:10173000231F849F600D211D822F762F6A2F112475
:101740009F5750409AF0F1F088234AF0EE0FFF1FA8
:10175000BB1F661F771F881F91505040A9F79E3FFF
:10176000510580F00C940B0B0C94560B5F3FE4F387
:10177000983ED4F3869577956795B795F795E79555
:101780009F5FC1F7FE2B880F911D9695879597F95E
:101790000895CF92DF92EF92FF92CF93DF93CDB770
:1017A000DEB72A970FB6F894DEBF0FBECDBF89878C
:1017B0009A87A985BA852D913D914D915C91298398
:1017C0003A834B835C83232B242B252B41F424E287
:1017D00039ED4BE557E029833A834B835C8369817C
:1017E0007A818B819C812DE133EF41E050E00E94B2
:1017F000570C69017A01A7EAB1E49B01AC010E9490
:10180000760C69837A838B839C83ACEEB4EFA7015B
:1018100096010E94840C9B01AC0189819A81AB8165
:10182000BC81820F931FA41FB51FB7FF03C0019790
:10183000A109B048E985FA8580839183A283B383A7
:101840009F772A960FB6F894DEBF0FBECDBFDF910B
:10185000CF91FF90EF90DF90CF9008950E94C90B39
:10186000089589E091E00E94C90B0895B0E0A0E0DE
:101870008093090190930A01A0930B01B0930C018E
:101880000895F999FECF92BD81BDF89A992780B548
:101890000895262FF999FECF1FBA92BD81BD20BDB4
:1018A0000FB6F894FA9AF99A0FBE01960895052E8C
:1018B00097FB1EF400940E946E0C57FD07D00E9407
:1018C000890C07FC03D04EF40C946E0C5095409597
:1018D000309521953F4F4F4F5F4F089590958095DC
:1018E000709561957F4F8F4F9F4F08950E94960985
:1018F000A59F900DB49F900DA49F800D911D112464
:101900000895B7FF0C94760C0E94760C821B930B03
:101910000895A1E21A2EAA1BBB1BFD010DC0AA1F30
:10192000BB1FEE1FFF1FA217B307E407F50720F048
:10193000A21BB30BE40BF50B661F771F881F991FC3
:101940001A9469F760957095809590959B01AC010C
:10195000BD01CF010895F894FFCFC4051B063106E1
:101960005D06640647066706E2071B071B07EB07D1
:0E197000EE07F107F507F707F907A6080B08C1
:0E197E002C01AA9A00970096000100000000BC
:00000001FF
